8=FIX.4.2|9=80|35=A|34=1|49=EXEC_SERVER|52=20260328-15:45:27.135|56=MINIFIX_CLIENT|98=0|108=30|10=145|8=FIX.4.2|9=68|35=0|34=2|49=EXEC_SERVER|52=20260328-15:45:58.038|56=MINIFIX_CLIENT|10=116|8=FIX.4.2|9=118|35=3|34=3|49=EXEC_SERVER|52=20260328-15:46:26.682|56=MINIFIX_CLIENT|45=5|58=Tag appears more than once, field=0|372=3|10=129|8=FIX.4.2|9=126|35=3|34=4|49=EXEC_SERVER|52=20260328-15:46:50.376|56=MINIFIX_CLIENT|45=7|58=Tag appears more than once, field=38|371=38|372=D|10=016|8=FIX.4.2|9=68|35=0|34=5|49=EXEC_SERVER|52=20260328-15:47:21.022|56=MINIFIX_CLIENT|10=104|8=FIX.4.2|9=68|35=0|34=6|49=EXEC_SERVER|52=20260328-15:47:51.016|56=MINIFIX_CLIENT|10=111|8=FIX.4.2|9=68|35=0|34=7|49=EXEC_SERVER|52=20260328-15:48:21.018|56=MINIFIX_CLIENT|10=112|8=FIX.4.2|9=68|35=0|34=8|49=EXEC_SERVER|52=20260328-15:48:51.999|56=MINIFIX_CLIENT|10=134|8=FIX.4.2|9=68|35=0|34=9|49=EXEC_SERVER|52=20260328-15:49:22.001|56=MINIFIX_CLIENT|10=108|8=FIX.4.2|9=69|35=0|34=10|49=EXEC_SERVER|52=20260328-15:49:52.986|56=MINIFIX_CLIENT|10=174|8=FIX.4.2|9=69|35=0|34=11|49=EXEC_SERVER|52=20260328-15:50:22.989|56=MINIFIX_CLIENT|10=167|8=FIX.4.2|9=69|35=0|34=12|49=EXEC_SERVER|52=20260328-15:50:52.980|56=MINIFIX_CLIENT|10=162|8=FIX.4.2|9=69|35=0|34=13|49=EXEC_SERVER|52=20260328-15:51:23.969|56=MINIFIX_CLIENT|10=169|8=FIX.4.2|9=69|35=0|34=14|49=EXEC_SERVER|52=20260328-15:51:53.971|56=MINIFIX_CLIENT|10=166|8=FIX.4.2|9=69|35=0|34=15|49=EXEC_SERVER|52=20260328-15:52:23.968|56=MINIFIX_CLIENT|10=171|8=FIX.4.2|9=69|35=0|34=16|49=EXEC_SERVER|52=20260328-15:52:54.961|56=MINIFIX_CLIENT|10=169|8=FIX.4.2|9=69|35=0|34=17|49=EXEC_SERVER|52=20260328-15:53:25.947|56=MINIFIX_CLIENT|10=173|8=FIX.4.2|9=69|35=0|34=18|49=EXEC_SERVER|52=20260328-15:53:55.940|56=MINIFIX_CLIENT|10=170|8=FIX.4.2|9=69|35=0|34=19|49=EXEC_SERVER|52=20260328-15:54:25.940|56=MINIFIX_CLIENT|10=169|8=FIX.4.2|9=69|35=0|34=20|49=EXEC_SERVER|52=20260328-15:54:56.925|56=MINIFIX_CLIENT|10=168|8=FIX.4.2|9=69|35=0|34=21|49=EXEC_SERVER|52=20260328-15:55:26.920|56=MINIFIX_CLIENT|10=162|8=FIX.4.2|9=69|35=0|34=22|49=EXEC_SERVER|52=20260328-15:55:56.921|56=MINIFIX_CLIENT|10=167|8=FIX.4.2|9=69|35=0|34=23|49=EXEC_SERVER|52=20260328-15:56:27.911|56=MINIFIX_CLIENT|10=166|8=FIX.4.2|9=69|35=0|34=24|49=EXEC_SERVER|52=20260328-15:56:58.902|56=MINIFIX_CLIENT|10=171|8=FIX.4.2|9=69|35=0|34=25|49=EXEC_SERVER|52=20260328-15:57:28.905|56=MINIFIX_CLIENT|10=173|8=FIX.4.2|9=69|35=0|34=26|49=EXEC_SERVER|52=20260328-15:57:59.567|56=MINIFIX_CLIENT|10=182|8=FIX.4.2|9=69|35=0|34=27|49=EXEC_SERVER|52=20260328-15:58:29.565|56=MINIFIX_CLIENT|10=179|8=FIX.4.2|9=69|35=0|34=28|49=EXEC_SERVER|52=20260328-15:58:59.573|56=MINIFIX_CLIENT|10=182|8=FIX.4.2|9=69|35=0|34=29|49=EXEC_SERVER|52=20260328-15:59:29.572|56=MINIFIX_CLIENT|10=180|8=FIX.4.2|9=69|35=0|34=30|49=EXEC_SERVER|52=20260328-15:59:59.577|56=MINIFIX_CLIENT|10=180|8=FIX.4.2|9=69|35=0|34=31|49=EXEC_SERVER|52=20260328-16:00:29.592|56=MINIFIX_CLIENT|10=162|8=FIX.4.2|9=69|35=0|34=32|49=EXEC_SERVER|52=20260328-16:00:59.596|56=MINIFIX_CLIENT|10=170|8=FIX.4.2|9=128|35=3|34=33|49=EXEC_SERVER|52=20260328-16:01:26.805|56=MINIFIX_CLIENT|45=37|58=Tag appears more than once, field=38|371=38|372=D|10=111|8=FIX.4.2|9=69|35=0|34=34|49=EXEC_SERVER|52=20260328-16:01:56.849|56=MINIFIX_CLIENT|10=171|8=FIX.4.2|9=69|35=0|34=35|49=EXEC_SERVER|52=20260328-16:02:26.850|56=MINIFIX_CLIENT|10=162|8=FIX.4.2|9=69|35=0|34=36|49=EXEC_SERVER|52=20260328-16:02:56.848|56=MINIFIX_CLIENT|10=173|8=FIX.4.2|9=69|35=0|34=37|49=EXEC_SERVER|52=20260328-16:03:26.844|56=MINIFIX_CLIENT|10=168|8=FIX.4.2|9=69|35=0|34=38|49=EXEC_SERVER|52=20260328-16:03:56.839|56=MINIFIX_CLIENT|10=176|8=FIX.4.2|9=69|35=0|34=39|49=EXEC_SERVER|52=20260328-16:04:27.821|56=MINIFIX_CLIENT|10=167|8=FIX.4.2|9=69|35=0|34=40|49=EXEC_SERVER|52=20260328-16:04:57.819|56=MINIFIX_CLIENT|10=169|8=FIX.4.2|9=69|35=0|34=41|49=EXEC_SERVER|52=20260328-16:05:27.824|56=MINIFIX_CLIENT|10=164|8=FIX.4.2|9=69|35=0|34=42|49=EXEC_SERVER|52=20260328-16:05:57.823|56=MINIFIX_CLIENT|10=167|8=FIX.4.2|9=69|35=0|34=43|49=EXEC_SERVER|52=20260328-16:06:28.805|56=MINIFIX_CLIENT|10=167|8=FIX.4.2|9=69|35=0|34=44|49=EXEC_SERVER|52=20260328-16:06:58.807|56=MINIFIX_CLIENT|10=173|8=FIX.4.2|9=69|35=0|34=45|49=EXEC_SERVER|52=20260328-16:07:28.798|56=MINIFIX_CLIENT|10=181|8=FIX.4.2|9=69|35=0|34=46|49=EXEC_SERVER|52=20260328-16:07:58.795|56=MINIFIX_CLIENT|10=182|8=FIX.4.2|9=69|35=0|34=47|49=EXEC_SERVER|52=20260328-16:08:28.798|56=MINIFIX_CLIENT|10=184|8=FIX.4.2|9=69|35=0|34=48|49=EXEC_SERVER|52=20260328-16:08:59.722|56=MINIFIX_CLIENT|10=176|8=FIX.4.2|9=69|35=0|34=49|49=EXEC_SERVER|52=20260328-16:09:29.724|56=MINIFIX_CLIENT|10=177|8=FIX.4.2|9=69|35=0|34=50|49=EXEC_SERVER|52=20260328-16:09:59.731|56=MINIFIX_CLIENT|10=170|8=FIX.4.2|9=69|35=0|34=51|49=EXEC_SERVER|52=20260328-16:10:29.745|56=MINIFIX_CLIENT|10=165|8=FIX.4.2|9=128|35=3|34=52|49=EXEC_SERVER|52=20260328-16:10:43.888|56=MINIFIX_CLIENT|45=57|58=Tag appears more than once, field=38|371=38|372=?|10=119|8=FIX.4.2|9=69|35=0|34=53|49=EXEC_SERVER|52=20260328-16:11:14.773|56=MINIFIX_CLIENT|10=163|8=FIX.4.2|9=124|35=3|34=54|49=EXEC_SERVER|52=20260328-16:11:14.914|56=MINIFIX_CLIENT|45=59|58=Invalid MsgType, field=35|371=35|372=?|373=11|10=200|8=FIX.4.2|9=124|35=3|34=55|49=EXEC_SERVER|52=20260328-16:11:34.530|56=MINIFIX_CLIENT|45=61|58=Invalid MsgType, field=35|371=35|372=?|373=11|10=190|8=FIX.4.2|9=124|35=3|34=56|49=EXEC_SERVER|52=20260328-16:11:48.213|56=MINIFIX_CLIENT|45=62|58=Invalid MsgType, field=35|371=35|372=?|373=11|10=195|8=FIX.4.2|9=69|35=0|34=57|49=EXEC_SERVER|52=20260328-16:12:18.759|56=MINIFIX_CLIENT|10=176|8=FIX.4.2|9=128|35=3|34=58|49=EXEC_SERVER|52=20260328-16:12:27.110|56=MINIFIX_CLIENT|45=64|58=Required tag missing, field=21|371=21|372=D|373=1|10=150|8=FIX.4.2|9=69|35=0|34=59|49=EXEC_SERVER|52=20260328-16:12:57.750|56=MINIFIX_CLIENT|10=172|8=FIX.4.2|9=69|35=0|34=60|49=EXEC_SERVER|52=20260328-16:13:27.749|56=MINIFIX_CLIENT|10=170|8=FIX.4.2|9=128|35=3|34=61|49=EXEC_SERVER|52=20260328-16:13:42.061|56=MINIFIX_CLIENT|45=68|58=Required tag missing, field=21|371=21|372=D|373=1|10=151|8=FIX.4.2|9=69|35=0|34=62|49=EXEC_SERVER|52=20260328-16:14:12.736|56=MINIFIX_CLIENT|10=163|8=FIX.4.2|9=69|35=0|34=63|49=EXEC_SERVER|52=20260328-16:14:42.737|56=MINIFIX_CLIENT|10=168|8=FIX.4.2|9=69|35=0|34=64|49=EXEC_SERVER|52=20260328-16:15:13.726|56=MINIFIX_CLIENT|10=166|8=FIX.4.2|9=69|35=0|34=65|49=EXEC_SERVER|52=20260328-16:15:43.721|56=MINIFIX_CLIENT|10=165|8=FIX.4.2|9=128|35=3|34=66|49=EXEC_SERVER|52=20260328-16:15:48.429|56=MINIFIX_CLIENT|45=73|58=Required tag missing, field=40|371=40|372=D|373=1|10=170|8=FIX.4.2|9=69|35=0|34=67|49=EXEC_SERVER|52=20260328-16:16:18.725|56=MINIFIX_CLIENT|10=174|8=FIX.4.2|9=69|35=0|34=68|49=EXEC_SERVER|52=20260328-16:16:48.718|56=MINIFIX_CLIENT|10=180|8=FIX.4.2|9=69|35=0|34=69|49=EXEC_SERVER|52=20260328-16:17:18.720|56=MINIFIX_CLIENT|10=172|8=FIX.4.2|9=69|35=0|34=70|49=EXEC_SERVER|52=20260328-16:17:48.717|56=MINIFIX_CLIENT|10=173|8=FIX.4.2|9=128|35=3|34=71|49=EXEC_SERVER|52=20260328-16:18:11.464|56=MINIFIX_CLIENT|45=79|58=Required tag missing, field=60|371=60|372=D|373=1|10=168|8=FIX.4.2|9=69|35=0|34=72|49=EXEC_SERVER|52=20260328-16:18:41.702|56=MINIFIX_CLIENT|10=163|8=FIX.4.2|9=69|35=0|34=73|49=EXEC_SERVER|52=20260328-16:19:11.702|56=MINIFIX_CLIENT|10=162|8=FIX.4.2|9=69|35=0|34=74|49=EXEC_SERVER|52=20260328-16:19:41.694|56=MINIFIX_CLIENT|10=176|8=FIX.4.2|9=69|35=0|34=75|49=EXEC_SERVER|52=20260328-16:20:11.693|56=MINIFIX_CLIENT|10=165|8=FIX.4.2|9=69|35=0|34=76|49=EXEC_SERVER|52=20260328-16:20:41.697|56=MINIFIX_CLIENT|10=173|8=FIX.4.2|9=128|35=3|34=77|49=EXEC_SERVER|52=20260328-16:21:10.981|56=MINIFIX_CLIENT|45=86|58=Required tag missing, field=11|371=11|372=D|373=1|10=161|8=FIX.4.2|9=69|35=0|34=78|49=EXEC_SERVER|52=20260328-16:21:41.679|56=MINIFIX_CLIENT|10=176|8=FIX.4.2|9=128|35=3|34=79|49=EXEC_SERVER|52=20260328-16:22:09.525|56=MINIFIX_CLIENT|45=89|58=Required tag missing, field=11|371=11|372=D|373=1|10=169|8=FIX.4.2|9=69|35=0|34=80|49=EXEC_SERVER|52=20260328-16:22:39.687|56=MINIFIX_CLIENT|10=176|8=FIX.4.2|9=69|35=0|34=81|49=EXEC_SERVER|52=20260328-16:23:10.673|56=MINIFIX_CLIENT|10=162|8=FIX.4.2|9=69|35=0|34=82|49=EXEC_SERVER|52=20260328-16:23:40.673|56=MINIFIX_CLIENT|10=166|8=FIX.4.2|9=69|35=0|34=83|49=EXEC_SERVER|52=20260328-16:24:10.678|56=MINIFIX_CLIENT|10=170|8=FIX.4.2|9=69|35=0|34=84|49=EXEC_SERVER|52=20260328-16:24:40.674|56=MINIFIX_CLIENT|10=170|8=FIX.4.2|9=69|35=0|34=85|49=EXEC_SERVER|52=20260328-16:25:11.658|56=MINIFIX_CLIENT|10=172|8=FIX.4.2|9=69|35=0|34=86|49=EXEC_SERVER|52=20260328-16:25:41.661|56=MINIFIX_CLIENT|10=170|8=FIX.4.2|9=69|35=0|34=87|49=EXEC_SERVER|52=20260328-16:26:12.653|56=MINIFIX_CLIENT|10=171|8=FIX.4.2|9=128|35=3|34=88|49=EXEC_SERVER|52=20260328-16:26:17.659|56=MINIFIX_CLIENT|45=98|58=Required tag missing, field=60|371=60|372=D|373=1|10=188|8=FIX.4.2|9=69|35=0|34=89|49=EXEC_SERVER|52=20260328-16:26:47.654|56=MINIFIX_CLIENT|10=182|8=FIX.4.2|9=69|35=0|34=90|49=EXEC_SERVER|52=20260328-16:27:17.653|56=MINIFIX_CLIENT|10=171|8=FIX.4.2|9=69|35=0|34=91|49=EXEC_SERVER|52=20260328-16:27:48.642|56=MINIFIX_CLIENT|10=174|8=FIX.4.2|9=129|35=3|34=92|49=EXEC_SERVER|52=20260328-16:28:05.192|56=MINIFIX_CLIENT|45=103|58=Required tag missing, field=60|371=60|372=D|373=1|10=210|8=FIX.4.2|9=69|35=0|34=93|49=EXEC_SERVER|52=20260328-16:28:35.638|56=MINIFIX_CLIENT|10=178|8=FIX.4.2|9=69|35=0|34=94|49=EXEC_SERVER|52=20260328-16:29:05.642|56=MINIFIX_CLIENT|10=172|8=FIX.4.2|9=69|35=0|34=95|49=EXEC_SERVER|52=20260328-16:29:35.637|56=MINIFIX_CLIENT|10=180|8=FIX.4.2|9=69|35=0|34=96|49=EXEC_SERVER|52=20260328-16:30:05.640|56=MINIFIX_CLIENT|10=164|8=FIX.4.2|9=69|35=0|34=97|49=EXEC_SERVER|52=20260328-16:30:35.632|56=MINIFIX_CLIENT|10=169|8=FIX.4.2|9=69|35=0|34=98|49=EXEC_SERVER|52=20260328-16:31:05.624|56=MINIFIX_CLIENT|10=169|8=FIX.4.2|9=69|35=0|34=99|49=EXEC_SERVER|52=20260328-16:31:35.626|56=MINIFIX_CLIENT|10=175|8=FIX.4.2|9=70|35=0|34=100|49=EXEC_SERVER|52=20260328-16:32:05.628|56=MINIFIX_CLIENT|10=198|8=FIX.4.2|9=70|35=0|34=101|49=EXEC_SERVER|52=20260328-16:32:36.616|56=MINIFIX_CLIENT|10=200|8=FIX.4.2|9=126|35=3|34=102|49=EXEC_SERVER|52=20260328-16:33:01.986|56=MINIFIX_CLIENT|45=114|58=Invalid MsgType, field=35|371=35|372=?|373=11|10=037|8=FIX.4.2|9=70|35=0|34=103|49=EXEC_SERVER|52=20260328-16:33:32.612|56=MINIFIX_CLIENT|10=195|8=FIX.4.2|9=70|35=0|34=104|49=EXEC_SERVER|52=20260328-16:34:02.603|56=MINIFIX_CLIENT|10=194|8=FIX.4.2|9=70|35=0|34=105|49=EXEC_SERVER|52=20260328-16:34:32.604|56=MINIFIX_CLIENT|10=199|8=FIX.4.2|9=70|35=0|34=106|49=EXEC_SERVER|52=20260328-16:35:02.599|56=MINIFIX_CLIENT|10=211|8=FIX.4.2|9=70|35=0|34=107|49=EXEC_SERVER|52=20260328-16:35:32.603|56=MINIFIX_CLIENT|10=201|8=FIX.4.2|9=130|35=3|34=108|49=EXEC_SERVER|52=20260328-16:36:00.156|56=MINIFIX_CLIENT|45=120|58=Required tag missing, field=60|371=60|372=D|373=1|10=241|8=FIX.4.2|9=126|35=3|34=109|49=EXEC_SERVER|52=20260328-16:36:18.333|56=MINIFIX_CLIENT|45=122|58=Invalid MsgType, field=35|371=35|372=?|373=11|10=040|8=FIX.4.2|9=70|35=0|34=110|49=EXEC_SERVER|52=20260328-16:36:48.600|56=MINIFIX_CLIENT|10=200|8=FIX.4.2|9=70|35=0|34=111|49=EXEC_SERVER|52=20260328-16:37:18.595|56=MINIFIX_CLIENT|10=212|8=FIX.4.2|9=70|35=0|34=112|49=EXEC_SERVER|52=20260328-16:37:48.590|56=MINIFIX_CLIENT|10=211|8=FIX.4.2|9=70|35=0|34=113|49=EXEC_SERVER|52=20260328-16:38:18.592|56=MINIFIX_CLIENT|10=212|8=FIX.4.2|9=70|35=0|34=114|49=EXEC_SERVER|52=20260328-16:38:48.588|56=MINIFIX_CLIENT|10=221|8=FIX.4.2|9=70|35=0|34=115|49=EXEC_SERVER|52=20260328-16:39:18.582|56=MINIFIX_CLIENT|10=214|8=FIX.4.2|9=70|35=0|34=116|49=EXEC_SERVER|52=20260328-16:39:48.579|56=MINIFIX_CLIENT|10=224|8=FIX.4.2|9=70|35=0|34=117|49=EXEC_SERVER|52=20260328-16:40:18.582|56=MINIFIX_CLIENT|10=208|8=FIX.4.2|9=70|35=0|34=118|49=EXEC_SERVER|52=20260328-16:40:48.573|56=MINIFIX_CLIENT|10=212|8=FIX.4.2|9=70|35=0|34=119|49=EXEC_SERVER|52=20260328-16:41:18.582|56=MINIFIX_CLIENT|10=211|8=FIX.4.2|9=70|35=0|34=120|49=EXEC_SERVER|52=20260328-16:41:49.571|56=MINIFIX_CLIENT|10=205|8=FIX.4.2|9=70|35=0|34=121|49=EXEC_SERVER|52=20260328-16:42:19.577|56=MINIFIX_CLIENT|10=210|8=FIX.4.2|9=70|35=0|34=122|49=EXEC_SERVER|52=20260328-16:42:49.569|56=MINIFIX_CLIENT|10=215|8=FIX.4.2|9=70|35=0|34=123|49=EXEC_SERVER|52=20260328-16:43:19.567|56=MINIFIX_CLIENT|10=212|8=FIX.4.2|9=70|35=0|34=124|49=EXEC_SERVER|52=20260328-16:43:49.568|56=MINIFIX_CLIENT|10=217|8=FIX.4.2|9=70|35=0|34=125|49=EXEC_SERVER|52=20260328-16:44:20.557|56=MINIFIX_CLIENT|10=206|8=FIX.4.2|9=70|35=0|34=126|49=EXEC_SERVER|52=20260328-16:44:50.560|56=MINIFIX_CLIENT|10=204|8=FIX.4.2|9=70|35=0|34=127|49=EXEC_SERVER|52=20260328-16:45:20.561|56=MINIFIX_CLIENT|10=204|8=FIX.4.2|9=70|35=0|34=128|49=EXEC_SERVER|52=20260328-16:45:51.552|56=MINIFIX_CLIENT|10=209|8=FIX.4.2|9=70|35=0|34=129|49=EXEC_SERVER|52=20260328-16:46:21.550|56=MINIFIX_CLIENT|10=206|8=FIX.4.2|9=70|35=0|34=130|49=EXEC_SERVER|52=20260328-16:46:51.544|56=MINIFIX_CLIENT|10=204|8=FIX.4.2|9=126|35=3|34=131|49=EXEC_SERVER|52=20260328-16:46:55.719|56=MINIFIX_CLIENT|45=144|58=Invalid MsgType, field=35|371=35|372=?|373=11|10=049|8=FIX.4.2|9=70|35=0|34=132|49=EXEC_SERVER|52=20260328-16:47:26.543|56=MINIFIX_CLIENT|10=208|8=FIX.4.2|9=130|35=3|34=133|49=EXEC_SERVER|52=20260328-16:47:38.978|56=MINIFIX_CLIENT|45=147|58=Required tag missing, field=60|371=60|372=D|373=1|10=017|8=FIX.4.2|9=70|35=0|34=134|49=EXEC_SERVER|52=20260328-16:48:09.548|56=MINIFIX_CLIENT|10=217|8=FIX.4.2|9=70|35=0|34=135|49=EXEC_SERVER|52=20260328-16:48:39.547|56=MINIFIX_CLIENT|10=220|8=FIX.4.2|9=70|35=0|34=136|49=EXEC_SERVER|52=20260328-16:49:10.534|56=MINIFIX_CLIENT|10=207|8=FIX.4.2|9=70|35=0|34=137|49=EXEC_SERVER|52=20260328-16:49:40.535|56=MINIFIX_CLIENT|10=212|8=FIX.4.2|9=70|35=0|34=138|49=EXEC_SERVER|52=20260328-16:50:10.540|56=MINIFIX_CLIENT|10=198|8=FIX.4.2|9=70|35=0|34=139|49=EXEC_SERVER|52=20260328-16:50:41.527|56=MINIFIX_CLIENT|10=208|8=FIX.4.2|9=70|35=0|34=140|49=EXEC_SERVER|52=20260328-16:51:11.528|56=MINIFIX_CLIENT|10=199|8=FIX.4.2|9=70|35=0|34=141|49=EXEC_SERVER|52=20260328-16:51:41.532|56=MINIFIX_CLIENT|10=198|8=FIX.4.2|9=70|35=0|34=142|49=EXEC_SERVER|52=20260328-16:52:12.520|56=MINIFIX_CLIENT|10=195|8=FIX.4.2|9=130|35=3|34=143|49=EXEC_SERVER|52=20260328-16:52:37.145|56=MINIFIX_CLIENT|45=158|58=Required tag missing, field=60|371=60|372=D|373=1|10=001|8=FIX.4.2|9=70|35=0|34=144|49=EXEC_SERVER|52=20260328-16:53:07.522|56=MINIFIX_CLIENT|10=204|8=FIX.4.2|9=130|35=3|34=145|49=EXEC_SERVER|52=20260328-16:53:21.880|56=MINIFIX_CLIENT|45=160|58=Required tag missing, field=60|371=60|372=D|373=1|10=252|8=FIX.4.2|9=70|35=0|34=146|49=EXEC_SERVER|52=20260328-16:53:52.514|56=MINIFIX_CLIENT|10=207|8=FIX.4.2|9=130|35=3|34=147|49=EXEC_SERVER|52=20260328-16:54:21.336|56=MINIFIX_CLIENT|45=163|58=Required tag missing, field=60|371=60|372=D|373=1|10=254|8=FIX.4.2|9=70|35=0|34=148|49=EXEC_SERVER|52=20260328-16:54:51.518|56=MINIFIX_CLIENT|10=213|8=FIX.4.2|9=70|35=0|34=149|49=EXEC_SERVER|52=20260328-16:55:21.513|56=MINIFIX_CLIENT|10=207|8=FIX.4.2|9=70|35=0|34=150|49=EXEC_SERVER|52=20260328-16:55:51.513|56=MINIFIX_CLIENT|10=202|8=FIX.4.2|9=70|35=0|34=151|49=EXEC_SERVER|52=20260328-16:56:21.513|56=MINIFIX_CLIENT|10=201|8=FIX.4.2|9=70|35=0|34=152|49=EXEC_SERVER|52=20260328-16:56:51.517|56=MINIFIX_CLIENT|10=209|8=FIX.4.2|9=70|35=0|34=153|49=EXEC_SERVER|52=20260328-16:57:21.514|56=MINIFIX_CLIENT|10=205|8=FIX.4.2|9=70|35=0|34=154|49=EXEC_SERVER|52=20260328-16:57:51.515|56=MINIFIX_CLIENT|10=210|8=FIX.4.2|9=70|35=0|34=155|49=EXEC_SERVER|52=20260328-16:58:22.502|56=MINIFIX_CLIENT|10=206|8=FIX.4.2|9=70|35=0|34=156|49=EXEC_SERVER|52=20260328-16:58:52.503|56=MINIFIX_CLIENT|10=211|8=FIX.4.2|9=70|35=0|34=157|49=EXEC_SERVER|52=20260328-16:59:22.505|56=MINIFIX_CLIENT|10=212|8=FIX.4.2|9=70|35=0|34=158|49=EXEC_SERVER|52=20260328-16:59:52.499|56=MINIFIX_CLIENT|10=228|8=FIX.4.2|9=70|35=0|34=159|49=EXEC_SERVER|52=20260328-17:00:22.503|56=MINIFIX_CLIENT|10=199|8=FIX.4.2|9=70|35=0|34=160|49=EXEC_SERVER|52=20260328-17:00:52.502|56=MINIFIX_CLIENT|10=193|8=FIX.4.2|9=70|35=0|34=161|49=EXEC_SERVER|52=20260328-17:01:22.498|56=MINIFIX_CLIENT|10=206|8=FIX.4.2|9=70|35=0|34=162|49=EXEC_SERVER|52=20260328-17:01:52.496|56=MINIFIX_CLIENT|10=208|8=FIX.4.2|9=70|35=0|34=163|49=EXEC_SERVER|52=20260328-17:02:22.497|56=MINIFIX_CLIENT|10=208|8=FIX.4.2|9=70|35=0|34=164|49=EXEC_SERVER|52=20260328-17:02:53.497|56=MINIFIX_CLIENT|10=213|8=FIX.4.2|9=70|35=0|34=165|49=EXEC_SERVER|52=20260328-17:03:23.494|56=MINIFIX_CLIENT|10=209|8=FIX.4.2|9=70|35=0|34=166|49=EXEC_SERVER|52=20260328-17:03:54.484|56=MINIFIX_CLIENT|10=213|8=FIX.4.2|9=70|35=0|34=167|49=EXEC_SERVER|52=20260328-17:04:24.492|56=MINIFIX_CLIENT|10=211|8=FIX.4.2|9=70|35=0|34=168|49=EXEC_SERVER|52=20260328-17:04:55.478|56=MINIFIX_CLIENT|10=220|8=FIX.4.2|9=70|35=0|34=169|49=EXEC_SERVER|52=20260328-17:05:25.486|56=MINIFIX_CLIENT|10=218|8=FIX.4.2|9=70|35=0|34=170|49=EXEC_SERVER|52=20260328-17:05:55.486|56=MINIFIX_CLIENT|10=213|8=FIX.4.2|9=70|35=0|34=171|49=EXEC_SERVER|52=20260328-17:06:25.485|56=MINIFIX_CLIENT|10=211|8=FIX.4.2|9=70|35=0|34=172|49=EXEC_SERVER|52=20260328-17:06:55.483|56=MINIFIX_CLIENT|10=213|8=FIX.4.2|9=70|35=0|34=173|49=EXEC_SERVER|52=20260328-17:07:26.473|56=MINIFIX_CLIENT|10=212|8=FIX.4.2|9=70|35=0|34=174|49=EXEC_SERVER|52=20260328-17:07:56.470|56=MINIFIX_CLIENT|10=213|8=FIX.4.2|9=70|35=0|34=175|49=EXEC_SERVER|52=20260328-17:08:26.471|56=MINIFIX_CLIENT|10=213|8=FIX.4.2|9=70|35=0|34=176|49=EXEC_SERVER|52=20260328-17:08:56.473|56=MINIFIX_CLIENT|10=219|8=FIX.4.2|9=70|35=0|34=177|49=EXEC_SERVER|52=20260328-17:09:26.473|56=MINIFIX_CLIENT|10=218|8=FIX.4.2|9=70|35=0|34=178|49=EXEC_SERVER|52=20260328-17:09:56.474|56=MINIFIX_CLIENT|10=223|8=FIX.4.2|9=130|35=3|34=179|49=EXEC_SERVER|52=20260328-17:10:24.352|56=MINIFIX_CLIENT|45=196|58=Required tag missing, field=60|371=60|372=D|373=1|10=003|8=FIX.4.2|9=70|35=0|34=180|49=EXEC_SERVER|52=20260328-17:10:54.471|56=MINIFIX_CLIENT|10=203|8=FIX.4.2|9=70|35=0|34=181|49=EXEC_SERVER|52=20260328-17:11:25.460|56=MINIFIX_CLIENT|10=201|8=FIX.4.2|9=70|35=0|34=182|49=EXEC_SERVER|52=20260328-17:11:55.473|56=MINIFIX_CLIENT|10=209|8=FIX.4.2|9=70|35=0|34=183|49=EXEC_SERVER|52=20260328-17:12:26.459|56=MINIFIX_CLIENT|10=213|8=FIX.4.2|9=70|35=0|34=184|49=EXEC_SERVER|52=20260328-17:12:56.469|56=MINIFIX_CLIENT|10=218|8=FIX.4.2|9=70|35=0|34=185|49=EXEC_SERVER|52=20260328-17:13:27.459|56=MINIFIX_CLIENT|10=217|8=FIX.4.2|9=70|35=0|34=186|49=EXEC_SERVER|52=20260328-17:13:57.462|56=MINIFIX_CLIENT|10=215|8=FIX.4.2|9=70|35=0|34=187|49=EXEC_SERVER|52=20260328-17:14:27.456|56=MINIFIX_CLIENT|10=217|8=FIX.4.2|9=70|35=0|34=188|49=EXEC_SERVER|52=20260328-17:14:57.463|56=MINIFIX_CLIENT|10=219|8=FIX.4.2|9=70|35=0|34=189|49=EXEC_SERVER|52=20260328-17:15:27.465|56=MINIFIX_CLIENT|10=220|8=FIX.4.2|9=70|35=0|34=190|49=EXEC_SERVER|52=20260328-17:15:58.456|56=MINIFIX_CLIENT|10=216|8=FIX.4.2|9=70|35=0|34=191|49=EXEC_SERVER|52=20260328-17:16:28.459|56=MINIFIX_CLIENT|10=218|8=FIX.4.2|9=70|35=0|34=192|49=EXEC_SERVER|52=20260328-17:16:58.457|56=MINIFIX_CLIENT|10=220|8=FIX.4.2|9=70|35=0|34=193|49=EXEC_SERVER|52=20260328-17:17:29.450|56=MINIFIX_CLIENT|10=213|8=FIX.4.2|9=70|35=0|34=194|49=EXEC_SERVER|52=20260328-17:17:59.452|56=MINIFIX_CLIENT|10=219|8=FIX.4.2|9=70|35=0|34=195|49=EXEC_SERVER|52=20260328-17:18:29.458|56=MINIFIX_CLIENT|10=224|8=FIX.4.2|9=70|35=0|34=196|49=EXEC_SERVER|52=20260328-17:19:00.446|56=MINIFIX_CLIENT|10=212|8=FIX.4.2|9=70|35=0|34=197|49=EXEC_SERVER|52=20260328-17:19:30.450|56=MINIFIX_CLIENT|10=211|8=FIX.4.2|9=70|35=0|34=198|49=EXEC_SERVER|52=20260328-17:20:01.299|56=MINIFIX_CLIENT|10=213|8=FIX.4.2|9=70|35=0|34=199|49=EXEC_SERVER|52=20260328-17:20:31.320|56=MINIFIX_CLIENT|10=202|8=FIX.4.2|9=70|35=0|34=200|49=EXEC_SERVER|52=20260328-17:21:01.324|56=MINIFIX_CLIENT|10=187|8=FIX.4.2|9=70|35=0|34=201|49=EXEC_SERVER|52=20260328-17:21:31.331|56=MINIFIX_CLIENT|10=189|8=FIX.4.2|9=70|35=0|34=202|49=EXEC_SERVER|52=20260328-17:22:01.346|56=MINIFIX_CLIENT|10=194|8=FIX.4.2|9=70|35=0|34=203|49=EXEC_SERVER|52=20260328-17:22:31.369|56=MINIFIX_CLIENT|10=203|8=FIX.4.2|9=70|35=0|34=204|49=EXEC_SERVER|52=20260328-17:23:01.386|56=MINIFIX_CLIENT|10=201|8=FIX.4.2|9=70|35=0|34=205|49=EXEC_SERVER|52=20260328-17:23:31.393|56=MINIFIX_CLIENT|10=203|8=FIX.4.2|9=70|35=0|34=206|49=EXEC_SERVER|52=20260328-17:24:01.416|56=MINIFIX_CLIENT|10=198|8=FIX.4.2|9=70|35=0|34=207|49=EXEC_SERVER|52=20260328-17:24:31.422|56=MINIFIX_CLIENT|10=199|8=FIX.4.2|9=70|35=0|34=208|49=EXEC_SERVER|52=20260328-17:25:01.440|56=MINIFIX_CLIENT|10=198|8=FIX.4.2|9=70|35=0|34=209|49=EXEC_SERVER|52=20260328-17:25:31.433|56=MINIFIX_CLIENT|10=204|8=FIX.4.2|9=70|35=0|34=210|49=EXEC_SERVER|52=20260328-17:26:01.433|56=MINIFIX_CLIENT|10=194|8=FIX.4.2|9=70|35=0|34=211|49=EXEC_SERVER|52=20260328-17:26:31.441|56=MINIFIX_CLIENT|10=197|8=FIX.4.2|9=70|35=0|34=212|49=EXEC_SERVER|52=20260328-17:27:01.436|56=MINIFIX_CLIENT|10=200|8=FIX.4.2|9=70|35=0|34=213|49=EXEC_SERVER|52=20260328-17:27:31.498|56=MINIFIX_CLIENT|10=212|8=FIX.4.2|9=70|35=0|34=214|49=EXEC_SERVER|52=20260328-17:28:01.495|56=MINIFIX_CLIENT|10=208|8=FIX.4.2|9=70|35=0|34=215|49=EXEC_SERVER|52=20260328-17:28:31.517|56=MINIFIX_CLIENT|10=207|8=FIX.4.2|9=70|35=0|34=216|49=EXEC_SERVER|52=20260328-17:29:01.531|56=MINIFIX_CLIENT|10=202|8=FIX.4.2|9=70|35=0|34=217|49=EXEC_SERVER|52=20260328-17:29:31.536|56=MINIFIX_CLIENT|10=211|8=FIX.4.2|9=70|35=0|34=218|49=EXEC_SERVER|52=20260328-17:30:01.546|56=MINIFIX_CLIENT|10=202|8=FIX.4.2|9=70|35=0|34=219|49=EXEC_SERVER|52=20260328-17:30:31.572|56=MINIFIX_CLIENT|10=205|8=FIX.4.2|9=70|35=0|34=220|49=EXEC_SERVER|52=20260328-17:31:01.577|56=MINIFIX_CLIENT|10=200|8=FIX.4.2|9=70|35=0|34=221|49=EXEC_SERVER|52=20260328-17:31:31.579|56=MINIFIX_CLIENT|10=206|8=FIX.4.2|9=70|35=0|34=222|49=EXEC_SERVER|52=20260328-17:32:01.587|56=MINIFIX_CLIENT|10=204|8=FIX.4.2|9=70|35=0|34=223|49=EXEC_SERVER|52=20260328-17:32:31.592|56=MINIFIX_CLIENT|10=204|8=FIX.4.2|9=70|35=0|34=224|49=EXEC_SERVER|52=20260328-17:33:01.607|56=MINIFIX_CLIENT|10=200|8=FIX.4.2|9=70|35=0|34=225|49=EXEC_SERVER|52=20260328-17:33:31.611|56=MINIFIX_CLIENT|10=199|8=FIX.4.2|9=70|35=0|34=226|49=EXEC_SERVER|52=20260328-17:34:01.631|56=MINIFIX_CLIENT|10=200|8=FIX.4.2|9=70|35=0|34=227|49=EXEC_SERVER|52=20260328-17:34:31.648|56=MINIFIX_CLIENT|10=212|8=FIX.4.2|9=70|35=0|34=228|49=EXEC_SERVER|52=20260328-17:35:01.657|56=MINIFIX_CLIENT|10=211|8=FIX.4.2|9=70|35=0|34=229|49=EXEC_SERVER|52=20260328-17:35:31.668|56=MINIFIX_CLIENT|10=217|8=FIX.4.2|9=70|35=0|34=230|49=EXEC_SERVER|52=20260328-17:36:01.683|56=MINIFIX_CLIENT|10=204|8=FIX.4.2|9=70|35=0|34=231|49=EXEC_SERVER|52=20260328-17:36:31.705|56=MINIFIX_CLIENT|10=203|8=FIX.4.2|9=70|35=0|34=232|49=EXEC_SERVER|52=20260328-17:37:01.710|56=MINIFIX_CLIENT|10=198|8=FIX.4.2|9=70|35=0|34=233|49=EXEC_SERVER|52=20260328-17:37:31.723|56=MINIFIX_CLIENT|10=206|8=FIX.4.2|9=70|35=0|34=234|49=EXEC_SERVER|52=20260328-17:38:01.728|56=MINIFIX_CLIENT|10=210|8=FIX.4.2|9=70|35=0|34=235|49=EXEC_SERVER|52=20260328-17:38:31.744|56=MINIFIX_CLIENT|10=212|8=FIX.4.2|9=70|35=0|34=236|49=EXEC_SERVER|52=20260328-17:39:01.746|56=MINIFIX_CLIENT|10=213|8=FIX.4.2|9=70|35=0|34=237|49=EXEC_SERVER|52=20260328-17:39:31.757|56=MINIFIX_CLIENT|10=219|8=FIX.4.2|9=70|35=0|34=238|49=EXEC_SERVER|52=20260328-17:40:01.774|56=MINIFIX_CLIENT|10=208|8=FIX.4.2|9=70|35=0|34=239|49=EXEC_SERVER|52=20260328-17:40:31.785|56=MINIFIX_CLIENT|10=214|8=FIX.4.2|9=70|35=0|34=240|49=EXEC_SERVER|52=20260328-17:41:01.797|56=MINIFIX_CLIENT|10=207|8=FIX.4.2|9=70|35=0|34=241|49=EXEC_SERVER|52=20260328-17:41:31.802|56=MINIFIX_CLIENT|10=198|8=FIX.4.2|9=70|35=0|34=242|49=EXEC_SERVER|52=20260328-17:42:01.815|56=MINIFIX_CLIENT|10=201|8=FIX.4.2|9=70|35=0|34=243|49=EXEC_SERVER|52=20260328-17:42:31.822|56=MINIFIX_CLIENT|10=203|8=FIX.4.2|9=70|35=0|34=244|49=EXEC_SERVER|52=20260328-17:43:01.837|56=MINIFIX_CLIENT|10=208|8=FIX.4.2|9=70|35=0|34=245|49=EXEC_SERVER|52=20260328-17:43:31.854|56=MINIFIX_CLIENT|10=211|8=FIX.4.2|9=70|35=0|34=246|49=EXEC_SERVER|52=20260328-17:44:01.872|56=MINIFIX_CLIENT|10=210|8=FIX.4.2|9=70|35=0|34=247|49=EXEC_SERVER|52=20260328-17:44:31.889|56=MINIFIX_CLIENT|10=222|8=FIX.4.2|9=70|35=0|34=248|49=EXEC_SERVER|52=20260328-17:45:01.899|56=MINIFIX_CLIENT|10=222|8=FIX.4.2|9=70|35=0|34=249|49=EXEC_SERVER|52=20260328-17:45:31.908|56=MINIFIX_CLIENT|10=217|8=FIX.4.2|9=70|35=0|34=250|49=EXEC_SERVER|52=20260328-17:46:01.914|56=MINIFIX_CLIENT|10=204|8=FIX.4.2|9=70|35=0|34=251|49=EXEC_SERVER|52=20260328-17:46:31.930|56=MINIFIX_CLIENT|10=206|8=FIX.4.2|9=70|35=0|34=252|49=EXEC_SERVER|52=20260328-17:47:01.944|56=MINIFIX_CLIENT|10=210|8=FIX.4.2|9=70|35=0|34=253|49=EXEC_SERVER|52=20260328-17:47:31.957|56=MINIFIX_CLIENT|10=218|8=FIX.4.2|9=70|35=0|34=254|49=EXEC_SERVER|52=20260328-17:48:01.972|56=MINIFIX_CLIENT|10=214|8=FIX.4.2|9=70|35=0|34=255|49=EXEC_SERVER|52=20260328-17:48:31.996|56=MINIFIX_CLIENT|10=224|8=FIX.4.2|9=70|35=0|34=256|49=EXEC_SERVER|52=20260328-17:49:02.021|56=MINIFIX_CLIENT|10=203|8=FIX.4.2|9=70|35=0|34=257|49=EXEC_SERVER|52=20260328-17:49:32.019|56=MINIFIX_CLIENT|10=214|8=FIX.4.2|9=70|35=0|34=258|49=EXEC_SERVER|52=20260328-17:50:02.030|56=MINIFIX_CLIENT|10=197|8=FIX.4.2|9=70|35=0|34=259|49=EXEC_SERVER|52=20260328-17:50:32.051|56=MINIFIX_CLIENT|10=204|8=FIX.4.2|9=70|35=0|34=260|49=EXEC_SERVER|52=20260328-17:51:02.063|56=MINIFIX_CLIENT|10=197|8=FIX.4.2|9=70|35=0|34=261|49=EXEC_SERVER|52=20260328-17:51:32.074|56=MINIFIX_CLIENT|10=203|8=FIX.4.2|9=70|35=0|34=262|49=EXEC_SERVER|52=20260328-17:52:02.085|56=MINIFIX_CLIENT|10=204|8=FIX.4.2|9=82|35=A|34=263|49=EXEC_SERVER|52=20260328-17:53:53.667|56=MINIFIX_CLIENT|98=0|108=30|10=007|8=FIX.4.2|9=130|35=3|34=264|49=EXEC_SERVER|52=20260328-17:54:02.539|56=MINIFIX_CLIENT|45=283|58=Required tag missing, field=60|371=60|372=D|373=1|10=006|8=FIX.4.2|9=70|35=0|34=265|49=EXEC_SERVER|52=20260328-17:54:32.675|56=MINIFIX_CLIENT|10=217|8=FIX.4.2|9=70|35=0|34=266|49=EXEC_SERVER|52=20260328-17:55:02.683|56=MINIFIX_CLIENT|10=215|8=FIX.4.2|9=70|35=0|34=267|49=EXEC_SERVER|52=20260328-17:55:33.674|56=MINIFIX_CLIENT|10=220|8=FIX.4.2|9=82|35=A|34=268|49=EXEC_SERVER|52=20260328-18:14:50.671|56=MINIFIX_CLIENT|98=0|108=30|10=002|8=FIX.4.2|9=130|35=3|34=269|49=EXEC_SERVER|52=20260328-18:15:12.826|56=MINIFIX_CLIENT|45=288|58=Required tag missing, field=60|371=60|372=D|373=1|10=014|8=FIX.4.2|9=70|35=0|34=270|49=EXEC_SERVER|52=20260328-18:15:43.577|56=MINIFIX_CLIENT|10=214|8=FIX.4.2|9=70|35=0|34=271|49=EXEC_SERVER|52=20260328-18:16:13.581|56=MINIFIX_CLIENT|10=208|8=FIX.4.2|9=70|35=0|34=272|49=EXEC_SERVER|52=20260328-18:16:43.573|56=MINIFIX_CLIENT|10=213|8=FIX.4.2|9=70|35=0|34=273|49=EXEC_SERVER|52=20260328-18:17:13.580|56=MINIFIX_CLIENT|10=210|8=FIX.4.2|9=70|35=0|34=274|49=EXEC_SERVER|52=20260328-18:17:43.579|56=MINIFIX_CLIENT|10=222|8=FIX.4.2|9=70|35=0|34=275|49=EXEC_SERVER|52=20260328-18:18:13.573|56=MINIFIX_CLIENT|10=215|8=FIX.4.2|9=70|35=0|34=276|49=EXEC_SERVER|52=20260328-18:18:43.578|56=MINIFIX_CLIENT|10=224|8=FIX.4.2|9=70|35=0|34=277|49=EXEC_SERVER|52=20260328-18:19:13.579|56=MINIFIX_CLIENT|10=224|8=FIX.4.2|9=70|35=0|34=278|49=EXEC_SERVER|52=20260328-18:19:43.573|56=MINIFIX_CLIENT|10=222|8=FIX.4.2|9=70|35=0|34=279|49=EXEC_SERVER|52=20260328-18:20:13.584|56=MINIFIX_CLIENT|10=214|8=FIX.4.2|9=70|35=0|34=280|49=EXEC_SERVER|52=20260328-18:20:43.580|56=MINIFIX_CLIENT|10=205|8=FIX.4.2|9=70|35=0|34=281|49=EXEC_SERVER|52=20260328-18:21:13.575|56=MINIFIX_CLIENT|10=208|8=FIX.4.2|9=70|35=0|34=282|49=EXEC_SERVER|52=20260328-18:21:43.576|56=MINIFIX_CLIENT|10=213|8=FIX.4.2|9=70|35=0|34=283|49=EXEC_SERVER|52=20260328-18:22:13.573|56=MINIFIX_CLIENT|10=209|8=FIX.4.2|9=70|35=0|34=284|49=EXEC_SERVER|52=20260328-18:22:43.577|56=MINIFIX_CLIENT|10=217|8=FIX.4.2|9=70|35=0|34=285|49=EXEC_SERVER|52=20260328-18:23:13.584|56=MINIFIX_CLIENT|10=214|8=FIX.4.2|9=70|35=0|34=286|49=EXEC_SERVER|52=20260328-18:23:44.571|56=MINIFIX_CLIENT|10=215|8=FIX.4.2|9=70|35=0|34=287|49=EXEC_SERVER|52=20260328-18:24:14.580|56=MINIFIX_CLIENT|10=214|8=FIX.4.2|9=70|35=0|34=288|49=EXEC_SERVER|52=20260328-18:24:44.576|56=MINIFIX_CLIENT|10=223|8=FIX.4.2|9=70|35=0|34=289|49=EXEC_SERVER|52=20260328-18:25:14.578|56=MINIFIX_CLIENT|10=224|8=FIX.4.2|9=70|35=0|34=290|49=EXEC_SERVER|52=20260328-18:25:44.571|56=MINIFIX_CLIENT|10=212|8=FIX.4.2|9=70|35=0|34=291|49=EXEC_SERVER|52=20260328-18:26:14.583|56=MINIFIX_CLIENT|10=214|8=FIX.4.2|9=70|35=0|34=292|49=EXEC_SERVER|52=20260328-18:26:44.584|56=MINIFIX_CLIENT|10=219|8=FIX.4.2|9=70|35=0|34=293|49=EXEC_SERVER|52=20260328-18:27:14.584|56=MINIFIX_CLIENT|10=218|8=FIX.4.2|9=70|35=0|34=294|49=EXEC_SERVER|52=20260328-18:27:44.576|56=MINIFIX_CLIENT|10=223|8=FIX.4.2|9=70|35=0|34=295|49=EXEC_SERVER|52=20260328-18:28:14.581|56=MINIFIX_CLIENT|10=218|8=FIX.4.2|9=70|35=0|34=296|49=EXEC_SERVER|52=20260328-18:28:44.585|56=MINIFIX_CLIENT|10=226|8=FIX.4.2|9=70|35=0|34=297|49=EXEC_SERVER|52=20260328-18:29:14.736|56=MINIFIX_CLIENT|10=223|8=FIX.4.2|9=82|35=A|34=298|49=EXEC_SERVER|52=20260328-18:31:01.141|56=MINIFIX_CLIENT|98=0|108=30|10=248|8=FIX.4.2|9=70|35=0|34=299|49=EXEC_SERVER|52=20260328-18:31:31.893|56=MINIFIX_CLIENT|10=221|8=FIX.4.2|9=130|35=3|34=300|49=EXEC_SERVER|52=20260328-18:31:36.753|56=MINIFIX_CLIENT|45=320|58=Required tag missing, field=60|371=60|372=D|373=1|10=246|8=FIX.4.2|9=70|35=0|34=301|49=EXEC_SERVER|52=20260328-18:32:06.884|56=MINIFIX_CLIENT|10=208|8=FIX.4.2|9=70|35=0|34=302|49=EXEC_SERVER|52=20260328-18:32:36.883|56=MINIFIX_CLIENT|10=211|8=FIX.4.2|9=70|35=0|34=303|49=EXEC_SERVER|52=20260328-18:33:06.885|56=MINIFIX_CLIENT|10=212|8=FIX.4.2|9=70|35=0|34=304|49=EXEC_SERVER|52=20260328-18:33:36.884|56=MINIFIX_CLIENT|10=215|8=FIX.4.2|9=70|35=0|34=305|49=EXEC_SERVER|52=20260328-18:34:06.883|56=MINIFIX_CLIENT|10=213|8=FIX.4.2|9=70|35=0|34=306|49=EXEC_SERVER|52=20260328-18:34:36.894|56=MINIFIX_CLIENT|10=219|8=FIX.4.2|9=70|35=0|34=307|49=EXEC_SERVER|52=20260328-18:35:06.886|56=MINIFIX_CLIENT|10=219|8=FIX.4.2|9=70|35=0|34=308|49=EXEC_SERVER|52=20260328-18:35:36.889|56=MINIFIX_CLIENT|10=226|8=FIX.4.2|9=70|35=0|34=309|49=EXEC_SERVER|52=20260328-18:36:06.893|56=MINIFIX_CLIENT|10=220|8=FIX.4.2|9=70|35=0|34=310|49=EXEC_SERVER|52=20260328-18:36:36.890|56=MINIFIX_CLIENT|10=212|8=FIX.4.2|9=70|35=0|34=311|49=EXEC_SERVER|52=20260328-18:37:06.883|56=MINIFIX_CLIENT|10=213|8=FIX.4.2|9=70|35=0|34=312|49=EXEC_SERVER|52=20260328-18:37:36.890|56=MINIFIX_CLIENT|10=215|8=FIX.4.2|9=70|35=0|34=313|49=EXEC_SERVER|52=20260328-18:38:06.893|56=MINIFIX_CLIENT|10=217|8=FIX.4.2|9=70|35=0|34=314|49=EXEC_SERVER|52=20260328-18:38:36.884|56=MINIFIX_CLIENT|10=221|8=FIX.4.2|9=70|35=0|34=315|49=EXEC_SERVER|52=20260328-18:39:06.888|56=MINIFIX_CLIENT|10=224|8=FIX.4.2|9=70|35=0|34=316|49=EXEC_SERVER|52=20260328-18:39:36.889|56=MINIFIX_CLIENT|10=229|8=FIX.4.2|9=70|35=0|34=317|49=EXEC_SERVER|52=20260328-18:40:06.890|56=MINIFIX_CLIENT|10=211|8=FIX.4.2|9=70|35=0|34=318|49=EXEC_SERVER|52=20260328-18:40:36.881|56=MINIFIX_CLIENT|10=215|8=FIX.4.2|9=70|35=0|34=319|49=EXEC_SERVER|52=20260328-18:41:06.894|56=MINIFIX_CLIENT|10=218|8=FIX.4.2|9=70|35=0|34=320|49=EXEC_SERVER|52=20260328-18:41:36.885|56=MINIFIX_CLIENT|10=213|8=FIX.4.2|9=70|35=0|34=321|49=EXEC_SERVER|52=20260328-18:42:06.881|56=MINIFIX_CLIENT|10=208|8=FIX.4.2|9=70|35=0|34=322|49=EXEC_SERVER|52=20260328-18:42:36.886|56=MINIFIX_CLIENT|10=217|8=FIX.4.2|9=70|35=0|34=323|49=EXEC_SERVER|52=20260328-18:43:06.886|56=MINIFIX_CLIENT|10=216|8=FIX.4.2|9=70|35=0|34=324|49=EXEC_SERVER|52=20260328-18:43:36.895|56=MINIFIX_CLIENT|10=220|8=FIX.4.2|9=70|35=0|34=325|49=EXEC_SERVER|52=20260328-18:44:07.883|56=MINIFIX_CLIENT|10=217|8=FIX.4.2|9=70|35=0|34=326|49=EXEC_SERVER|52=20260328-18:44:37.887|56=MINIFIX_CLIENT|10=225|8=FIX.4.2|9=70|35=0|34=327|49=EXEC_SERVER|52=20260328-18:45:07.893|56=MINIFIX_CLIENT|10=221|8=FIX.4.2|9=70|35=0|34=328|49=EXEC_SERVER|52=20260328-18:45:37.890|56=MINIFIX_CLIENT|10=222|8=FIX.4.2|9=70|35=0|34=329|49=EXEC_SERVER|52=20260328-18:46:07.894|56=MINIFIX_CLIENT|10=225|8=FIX.4.2|9=70|35=0|34=330|49=EXEC_SERVER|52=20260328-18:46:37.890|56=MINIFIX_CLIENT|10=216|8=FIX.4.2|9=70|35=0|34=331|49=EXEC_SERVER|52=20260328-18:47:07.881|56=MINIFIX_CLIENT|10=215|8=FIX.4.2|9=70|35=0|34=332|49=EXEC_SERVER|52=20260328-18:47:37.894|56=MINIFIX_CLIENT|10=223|8=FIX.4.2|9=70|35=0|34=333|49=EXEC_SERVER|52=20260328-18:48:08.883|56=MINIFIX_CLIENT|10=221|8=FIX.4.2|9=81|35=2|34=334|49=EXEC_SERVER|52=20260328-18:48:26.523|56=MINIFIX_CLIENT|7=354|16=0|10=191|8=FIX.4.2|9=70|35=0|34=335|49=EXEC_SERVER|52=20260328-18:48:56.529|56=MINIFIX_CLIENT|10=223|8=FIX.4.2|9=70|35=0|34=336|49=EXEC_SERVER|52=20260328-18:49:26.549|56=MINIFIX_CLIENT|10=224|8=FIX.4.2|9=70|35=0|34=337|49=EXEC_SERVER|52=20260328-18:49:56.562|56=MINIFIX_CLIENT|10=223|8=FIX.4.2|9=70|35=0|34=338|49=EXEC_SERVER|52=20260328-18:50:26.570|56=MINIFIX_CLIENT|10=212|8=FIX.4.2|9=70|35=0|34=339|49=EXEC_SERVER|52=20260328-18:50:56.583|56=MINIFIX_CLIENT|10=220|8=FIX.4.2|9=70|35=0|34=340|49=EXEC_SERVER|52=20260328-18:51:26.588|56=MINIFIX_CLIENT|10=215|8=FIX.4.2|9=70|35=0|34=341|49=EXEC_SERVER|52=20260328-18:51:56.607|56=MINIFIX_CLIENT|10=211|8=FIX.4.2|9=70|35=0|34=342|49=EXEC_SERVER|52=20260328-18:52:26.614|56=MINIFIX_CLIENT|10=208|8=FIX.4.2|9=70|35=0|34=343|49=EXEC_SERVER|52=20260328-18:52:56.621|56=MINIFIX_CLIENT|10=210|8=FIX.4.2|9=70|35=0|34=344|49=EXEC_SERVER|52=20260328-18:53:26.642|56=MINIFIX_CLIENT|10=212|8=FIX.4.2|9=70|35=0|34=345|49=EXEC_SERVER|52=20260328-18:53:56.651|56=MINIFIX_CLIENT|10=216|8=FIX.4.2|9=70|35=0|34=346|49=EXEC_SERVER|52=20260328-18:54:26.672|56=MINIFIX_CLIENT|10=218|8=FIX.4.2|9=70|35=0|34=347|49=EXEC_SERVER|52=20260328-18:54:56.683|56=MINIFIX_CLIENT|10=224|8=FIX.4.2|9=70|35=0|34=348|49=EXEC_SERVER|52=20260328-18:55:26.694|56=MINIFIX_CLIENT|10=225|8=FIX.4.2|9=70|35=0|34=349|49=EXEC_SERVER|52=20260328-18:55:56.710|56=MINIFIX_CLIENT|10=218|8=FIX.4.2|9=70|35=0|34=350|49=EXEC_SERVER|52=20260328-18:56:26.717|56=MINIFIX_CLIENT|10=215|8=FIX.4.2|9=70|35=0|34=351|49=EXEC_SERVER|52=20260328-18:56:56.722|56=MINIFIX_CLIENT|10=215|8=FIX.4.2|9=70|35=0|34=352|49=EXEC_SERVER|52=20260328-18:57:26.739|56=MINIFIX_CLIENT|10=222|8=FIX.4.2|9=70|35=0|34=353|49=EXEC_SERVER|52=20260328-18:57:56.749|56=MINIFIX_CLIENT|10=227|8=FIX.4.2|9=70|35=0|34=354|49=EXEC_SERVER|52=20260328-18:58:26.765|56=MINIFIX_CLIENT|10=224|8=FIX.4.2|9=70|35=0|34=355|49=EXEC_SERVER|52=20260328-18:58:56.785|56=MINIFIX_CLIENT|10=230|8=FIX.4.2|9=70|35=0|34=356|49=EXEC_SERVER|52=20260328-18:59:26.795|56=MINIFIX_CLIENT|10=230|8=FIX.4.2|9=70|35=0|34=357|49=EXEC_SERVER|52=20260328-18:59:56.809|56=MINIFIX_CLIENT|10=230|8=FIX.4.2|9=70|35=0|34=358|49=EXEC_SERVER|52=20260328-19:00:26.822|56=MINIFIX_CLIENT|10=210|8=FIX.4.2|9=70|35=0|34=359|49=EXEC_SERVER|52=20260328-19:00:56.840|56=MINIFIX_CLIENT|10=214|8=FIX.4.2|9=70|35=0|34=360|49=EXEC_SERVER|52=20260328-19:01:26.850|56=MINIFIX_CLIENT|10=205|8=FIX.4.2|9=82|35=A|34=361|49=EXEC_SERVER|52=20260328-19:02:41.139|56=MINIFIX_CLIENT|98=0|108=30|10=249|8=FIX.4.2|9=81|35=2|34=362|49=EXEC_SERVER|52=20260328-19:02:41.183|56=MINIFIX_CLIENT|7=354|16=0|10=182|8=FIX.4.2|9=70|35=0|34=363|49=EXEC_SERVER|52=20260328-19:03:11.278|56=MINIFIX_CLIENT|10=208|8=FIX.4.2|9=70|35=0|34=364|49=EXEC_SERVER|52=20260328-19:03:41.272|56=MINIFIX_CLIENT|10=206|8=FIX.4.2|9=121|35=5|34=365|49=EXEC_SERVER|52=20260328-19:03:52.474|56=MINIFIX_CLIENT|58=MsgSeqNum too low, expecting 354 but received 1|10=008|8=FIX.4.2|9=82|35=A|34=366|49=EXEC_SERVER|52=20260328-19:03:55.896|56=MINIFIX_CLIENT|98=0|108=30|10=014|8=FIX.4.2|9=81|35=2|34=367|49=EXEC_SERVER|52=20260328-19:03:55.897|56=MINIFIX_CLIENT|7=354|16=0|10=205|8=FIX.4.2|9=121|35=5|34=368|49=EXEC_SERVER|52=20260328-19:04:29.438|56=MINIFIX_CLIENT|58=MsgSeqNum too low, expecting 354 but received 1|10=016|8=FIX.4.2|9=121|35=5|34=369|49=EXEC_SERVER|52=20260328-19:05:01.437|56=MINIFIX_CLIENT|58=MsgSeqNum too low, expecting 354 but received 1|10=007|8=FIX.4.2|9=121|35=5|34=370|49=EXEC_SERVER|52=20260328-19:05:16.846|56=MINIFIX_CLIENT|58=MsgSeqNum too low, expecting 354 but received 2|10=010|8=FIX.4.2|9=121|35=5|34=371|49=EXEC_SERVER|52=20260328-19:05:37.507|56=MINIFIX_CLIENT|58=MsgSeqNum too low, expecting 354 but received 1|10=007|8=FIX.4.2|9=121|35=5|34=372|49=EXEC_SERVER|52=20260328-19:06:12.109|56=MINIFIX_CLIENT|58=MsgSeqNum too low, expecting 354 but received 2|10=001|8=FIX.4.2|9=82|35=A|34=373|49=EXEC_SERVER|52=20260328-19:06:16.337|56=MINIFIX_CLIENT|98=0|108=30|10=002|8=FIX.4.2|9=81|35=2|34=374|49=EXEC_SERVER|52=20260328-19:06:16.338|56=MINIFIX_CLIENT|7=354|16=0|10=193|8=FIX.4.2|9=70|35=0|34=375|49=EXEC_SERVER|52=20260328-19:06:47.276|56=MINIFIX_CLIENT|10=221|8=FIX.4.2|9=70|35=0|34=376|49=EXEC_SERVER|52=20260328-19:07:17.272|56=MINIFIX_CLIENT|10=216|8=FIX.4.2|9=70|35=0|34=377|49=EXEC_SERVER|52=20260328-19:07:47.271|56=MINIFIX_CLIENT|10=219|8=FIX.4.2|9=70|35=0|34=378|49=EXEC_SERVER|52=20260328-19:08:17.277|56=MINIFIX_CLIENT|10=224|8=FIX.4.2|9=70|35=0|34=379|49=EXEC_SERVER|52=20260328-19:08:47.273|56=MINIFIX_CLIENT|10=224|8=FIX.4.2|9=70|35=0|34=380|49=EXEC_SERVER|52=20260328-19:09:17.268|56=MINIFIX_CLIENT|10=218|8=FIX.4.2|9=70|35=0|34=381|49=EXEC_SERVER|52=20260328-19:09:47.269|56=MINIFIX_CLIENT|10=223|8=FIX.4.2|9=70|35=0|34=382|49=EXEC_SERVER|52=20260328-19:10:17.265|56=MINIFIX_CLIENT|10=209|8=FIX.4.2|9=70|35=0|34=383|49=EXEC_SERVER|52=20260328-19:10:47.263|56=MINIFIX_CLIENT|10=211|8=FIX.4.2|9=70|35=0|34=384|49=EXEC_SERVER|52=20260328-19:11:17.264|56=MINIFIX_CLIENT|10=211|8=FIX.4.2|9=70|35=0|34=385|49=EXEC_SERVER|52=20260328-19:11:47.274|56=MINIFIX_CLIENT|10=216|8=FIX.4.2|9=70|35=0|34=386|49=EXEC_SERVER|52=20260328-19:12:17.271|56=MINIFIX_CLIENT|10=212|8=FIX.4.2|9=70|35=0|34=387|49=EXEC_SERVER|52=20260328-19:12:47.269|56=MINIFIX_CLIENT|10=223|8=FIX.4.2|9=70|35=0|34=388|49=EXEC_SERVER|52=20260328-19:13:17.278|56=MINIFIX_CLIENT|10=222|8=FIX.4.2|9=70|35=0|34=389|49=EXEC_SERVER|52=20260328-19:13:48.266|56=MINIFIX_CLIENT|10=224|8=FIX.4.2|9=121|35=5|34=390|49=EXEC_SERVER|52=20260328-19:14:25.914|56=MINIFIX_CLIENT|58=MsgSeqNum too low, expecting 354 but received 1|10=007|8=FIX.4.2|9=121|35=5|34=391|49=EXEC_SERVER|52=20260328-19:26:43.720|56=MINIFIX_CLIENT|58=MsgSeqNum too low, expecting 354 but received 1|10=006|8=FIX.4.2|9=82|35=A|34=392|49=EXEC_SERVER|52=20260328-19:26:51.197|56=MINIFIX_CLIENT|98=0|108=30|10=008|8=FIX.4.2|9=81|35=2|34=393|49=EXEC_SERVER|52=20260328-19:26:51.197|56=MINIFIX_CLIENT|7=354|16=0|10=198|8=FIX.4.2|9=70|35=0|34=394|49=EXEC_SERVER|52=20260328-19:27:21.268|56=MINIFIX_CLIENT|10=218|8=FIX.4.2|9=70|35=0|34=395|49=EXEC_SERVER|52=20260328-19:27:51.274|56=MINIFIX_CLIENT|10=219|8=FIX.4.2|9=70|35=0|34=396|49=EXEC_SERVER|52=20260328-19:28:21.277|56=MINIFIX_CLIENT|10=221|8=FIX.4.2|9=70|35=0|34=397|49=EXEC_SERVER|52=20260328-19:28:51.268|56=MINIFIX_CLIENT|10=225|8=FIX.4.2|9=70|35=0|34=398|49=EXEC_SERVER|52=20260328-19:29:21.278|56=MINIFIX_CLIENT|10=225|8=FIX.4.2|9=70|35=0|34=399|49=EXEC_SERVER|52=20260328-19:29:51.272|56=MINIFIX_CLIENT|10=223|8=FIX.4.2|9=70|35=0|34=400|49=EXEC_SERVER|52=20260328-19:30:21.275|56=MINIFIX_CLIENT|10=198|8=FIX.4.2|9=70|35=0|34=401|49=EXEC_SERVER|52=20260328-19:30:51.272|56=MINIFIX_CLIENT|10=199|8=FIX.4.2|9=70|35=0|34=402|49=EXEC_SERVER|52=20260328-19:31:21.271|56=MINIFIX_CLIENT|10=197|8=FIX.4.2|9=70|35=0|34=403|49=EXEC_SERVER|52=20260328-19:31:51.265|56=MINIFIX_CLIENT|10=204|8=FIX.4.2|9=70|35=0|34=404|49=EXEC_SERVER|52=20260328-19:32:21.265|56=MINIFIX_CLIENT|10=203|8=FIX.4.2|9=70|35=0|34=405|49=EXEC_SERVER|52=20260328-19:32:51.276|56=MINIFIX_CLIENT|10=209|8=FIX.4.2|9=70|35=0|34=406|49=EXEC_SERVER|52=20260328-19:33:22.266|56=MINIFIX_CLIENT|10=208|8=FIX.4.2|9=121|35=5|34=407|49=EXEC_SERVER|52=20260328-19:34:37.593|56=MINIFIX_CLIENT|58=MsgSeqNum too low, expecting 354 but received 1|10=014|8=FIX.4.2|9=121|35=5|34=408|49=EXEC_SERVER|52=20260328-19:37:54.617|56=MINIFIX_CLIENT|58=MsgSeqNum too low, expecting 354 but received 1|10=014|8=FIX.4.2|9=121|35=5|34=409|49=EXEC_SERVER|52=20260328-19:43:02.211|56=MINIFIX_CLIENT|58=MsgSeqNum too low, expecting 354 but received 1|10=251|8=FIX.4.2|9=121|35=5|34=410|49=EXEC_SERVER|52=20260328-19:44:51.551|56=MINIFIX_CLIENT|58=MsgSeqNum too low, expecting 354 but received 1|10=255|8=FIX.4.2|9=121|35=5|34=411|49=EXEC_SERVER|52=20260328-19:45:53.522|56=MINIFIX_CLIENT|58=MsgSeqNum too low, expecting 354 but received 1|10=001|8=FIX.4.2|9=121|35=5|34=412|49=EXEC_SERVER|52=20260328-19:51:05.617|56=MINIFIX_CLIENT|58=MsgSeqNum too low, expecting 354 but received 2|10=002|8=FIX.4.2|9=82|35=A|34=413|49=EXEC_SERVER|52=20260328-19:51:08.674|56=MINIFIX_CLIENT|98=0|108=30|10=002|8=FIX.4.2|9=70|35=0|34=414|49=EXEC_SERVER|52=20260328-19:51:39.410|56=MINIFIX_CLIENT|10=206|8=FIX.4.2|9=81|35=2|34=415|49=EXEC_SERVER|52=20260328-19:52:00.166|56=MINIFIX_CLIENT|7=356|16=0|10=184|8=FIX.4.2|9=70|35=0|34=416|49=EXEC_SERVER|52=20260328-19:52:30.177|56=MINIFIX_CLIENT|10=210|8=FIX.4.2|9=70|35=0|34=417|49=EXEC_SERVER|52=20260328-19:53:00.184|56=MINIFIX_CLIENT|10=207|8=FIX.4.2|9=70|35=0|34=418|49=EXEC_SERVER|52=20260328-19:53:30.200|56=MINIFIX_CLIENT|10=200|8=FIX.4.2|9=70|35=0|34=419|49=EXEC_SERVER|52=20260328-19:54:00.213|56=MINIFIX_CLIENT|10=203|8=FIX.4.2|9=70|35=0|34=420|49=EXEC_SERVER|52=20260328-19:54:30.219|56=MINIFIX_CLIENT|10=204|8=FIX.4.2|9=70|35=0|34=421|49=EXEC_SERVER|52=20260328-19:55:00.234|56=MINIFIX_CLIENT|10=200|8=FIX.4.2|9=70|35=0|34=422|49=EXEC_SERVER|52=20260328-19:55:30.250|56=MINIFIX_CLIENT|10=202|8=FIX.4.2|9=70|35=0|34=423|49=EXEC_SERVER|52=20260328-19:56:00.260|56=MINIFIX_CLIENT|10=202|8=FIX.4.2|9=70|35=0|34=424|49=EXEC_SERVER|52=20260328-19:56:30.267|56=MINIFIX_CLIENT|10=213|8=FIX.4.2|9=70|35=0|34=425|49=EXEC_SERVER|52=20260328-19:57:00.282|56=MINIFIX_CLIENT|10=209|8=FIX.4.2|9=70|35=0|34=426|49=EXEC_SERVER|52=20260328-19:57:30.290|56=MINIFIX_CLIENT|10=212|8=FIX.4.2|9=70|35=0|34=427|49=EXEC_SERVER|52=20260328-19:58:00.305|56=MINIFIX_CLIENT|10=208|8=FIX.4.2|9=70|35=0|34=428|49=EXEC_SERVER|52=20260328-19:58:30.320|56=MINIFIX_CLIENT|10=209|8=FIX.4.2|9=70|35=0|34=429|49=EXEC_SERVER|52=20260328-19:59:00.333|56=MINIFIX_CLIENT|10=212|8=FIX.4.2|9=70|35=0|34=430|49=EXEC_SERVER|52=20260328-19:59:30.341|56=MINIFIX_CLIENT|10=206|8=FIX.4.2|9=70|35=0|34=431|49=EXEC_SERVER|52=20260328-20:00:00.359|56=MINIFIX_CLIENT|10=191|8=FIX.4.2|9=70|35=0|34=432|49=EXEC_SERVER|52=20260328-20:00:30.366|56=MINIFIX_CLIENT|10=193|8=FIX.4.2|9=70|35=0|34=433|49=EXEC_SERVER|52=20260328-20:01:00.368|56=MINIFIX_CLIENT|10=194|8=FIX.4.2|9=70|35=0|34=434|49=EXEC_SERVER|52=20260328-20:01:30.386|56=MINIFIX_CLIENT|10=198|8=FIX.4.2|9=70|35=0|34=435|49=EXEC_SERVER|52=20260328-20:02:00.397|56=MINIFIX_CLIENT|10=199|8=FIX.4.2|9=70|35=0|34=436|49=EXEC_SERVER|52=20260328-20:02:30.407|56=MINIFIX_CLIENT|10=195|8=FIX.4.2|9=70|35=0|34=437|49=EXEC_SERVER|52=20260328-20:03:00.412|56=MINIFIX_CLIENT|10=190|8=FIX.4.2|9=70|35=0|34=438|49=EXEC_SERVER|52=20260328-20:03:30.431|56=MINIFIX_CLIENT|10=195|8=FIX.4.2|9=70|35=0|34=439|49=EXEC_SERVER|52=20260328-20:04:00.457|56=MINIFIX_CLIENT|10=202|8=FIX.4.2|9=70|35=0|34=440|49=EXEC_SERVER|52=20260328-20:04:30.481|56=MINIFIX_CLIENT|10=194|8=FIX.4.2|9=70|35=0|34=441|49=EXEC_SERVER|52=20260328-20:05:00.493|56=MINIFIX_CLIENT|10=196|8=FIX.4.2|9=70|35=0|34=442|49=EXEC_SERVER|52=20260328-20:05:30.503|56=MINIFIX_CLIENT|10=192|8=FIX.4.2|9=70|35=0|34=443|49=EXEC_SERVER|52=20260328-20:06:00.525|56=MINIFIX_CLIENT|10=195|8=FIX.4.2|9=70|35=0|34=444|49=EXEC_SERVER|52=20260328-20:06:30.527|56=MINIFIX_CLIENT|10=201|8=FIX.4.2|9=70|35=0|34=445|49=EXEC_SERVER|52=20260328-20:07:00.545|56=MINIFIX_CLIENT|10=200|8=FIX.4.2|9=70|35=0|34=446|49=EXEC_SERVER|52=20260328-20:07:30.553|56=MINIFIX_CLIENT|10=203|8=FIX.4.2|9=70|35=0|34=447|49=EXEC_SERVER|52=20260328-20:08:00.572|56=MINIFIX_CLIENT|10=203|8=FIX.4.2|9=70|35=0|34=448|49=EXEC_SERVER|52=20260328-20:08:30.585|56=MINIFIX_CLIENT|10=211|8=FIX.4.2|9=70|35=0|34=449|49=EXEC_SERVER|52=20260328-20:09:00.601|56=MINIFIX_CLIENT|10=199|8=FIX.4.2|9=70|35=0|34=450|49=EXEC_SERVER|52=20260328-20:09:30.608|56=MINIFIX_CLIENT|10=201|8=FIX.4.2|9=70|35=0|34=451|49=EXEC_SERVER|52=20260328-20:10:00.618|56=MINIFIX_CLIENT|10=192|8=FIX.4.2|9=70|35=0|34=452|49=EXEC_SERVER|52=20260328-20:10:30.636|56=MINIFIX_CLIENT|10=196|8=FIX.4.2|9=70|35=0|34=453|49=EXEC_SERVER|52=20260328-20:11:00.648|56=MINIFIX_CLIENT|10=198|8=FIX.4.2|9=70|35=0|34=454|49=EXEC_SERVER|52=20260328-20:11:30.656|56=MINIFIX_CLIENT|10=201|8=FIX.4.2|9=70|35=0|34=455|49=EXEC_SERVER|52=20260328-20:12:00.664|56=MINIFIX_CLIENT|10=199|8=FIX.4.2|9=70|35=0|34=456|49=EXEC_SERVER|52=20260328-20:12:30.670|56=MINIFIX_CLIENT|10=200|8=FIX.4.2|9=70|35=0|34=457|49=EXEC_SERVER|52=20260328-20:13:00.675|56=MINIFIX_CLIENT|10=204|8=FIX.4.2|9=70|35=0|34=458|49=EXEC_SERVER|52=20260328-20:13:30.680|56=MINIFIX_CLIENT|10=204|8=FIX.4.2|9=70|35=0|34=459|49=EXEC_SERVER|52=20260328-20:14:00.685|56=MINIFIX_CLIENT|10=208|8=FIX.4.2|9=70|35=0|34=460|49=EXEC_SERVER|52=20260328-20:14:30.701|56=MINIFIX_CLIENT|10=192|8=FIX.4.2|9=70|35=0|34=461|49=EXEC_SERVER|52=20260328-20:15:00.712|56=MINIFIX_CLIENT|10=193|8=FIX.4.2|9=70|35=0|34=462|49=EXEC_SERVER|52=20260328-20:15:30.722|56=MINIFIX_CLIENT|10=198|8=FIX.4.2|9=70|35=0|34=463|49=EXEC_SERVER|52=20260328-20:16:00.740|56=MINIFIX_CLIENT|10=197|8=FIX.4.2|9=70|35=0|34=464|49=EXEC_SERVER|52=20260328-20:16:30.743|56=MINIFIX_CLIENT|10=204|8=FIX.4.2|9=70|35=0|34=465|49=EXEC_SERVER|52=20260328-20:17:00.750|56=MINIFIX_CLIENT|10=201|8=FIX.4.2|9=70|35=0|34=466|49=EXEC_SERVER|52=20260328-20:17:30.759|56=MINIFIX_CLIENT|10=214|8=FIX.4.2|9=70|35=0|34=467|49=EXEC_SERVER|52=20260328-20:18:00.774|56=MINIFIX_CLIENT|10=210|8=FIX.4.2|9=70|35=0|34=468|49=EXEC_SERVER|52=20260328-20:18:30.783|56=MINIFIX_CLIENT|10=214|8=FIX.4.2|9=121|35=5|34=469|49=EXEC_SERVER|52=20260328-20:19:02.555|56=MINIFIX_CLIENT|58=MsgSeqNum too low, expecting 356 but received 1|10=009|8=FIX.4.2|9=82|35=A|34=470|49=EXEC_SERVER|52=20260328-20:19:06.538|56=MINIFIX_CLIENT|98=0|108=30|10=254|8=FIX.4.2|9=81|35=2|34=471|49=EXEC_SERVER|52=20260328-20:19:06.539|56=MINIFIX_CLIENT|7=356|16=0|10=191|8=FIX.4.2|9=70|35=0|34=472|49=EXEC_SERVER|52=20260328-20:19:37.411|56=MINIFIX_CLIENT|10=205|8=FIX.4.2|9=70|35=0|34=473|49=EXEC_SERVER|52=20260328-20:20:07.406|56=MINIFIX_CLIENT|10=199|8=FIX.4.2|9=70|35=0|34=474|49=EXEC_SERVER|52=20260328-20:20:37.398|56=MINIFIX_CLIENT|10=213|8=FIX.4.2|9=70|35=0|34=475|49=EXEC_SERVER|52=20260328-20:21:07.403|56=MINIFIX_CLIENT|10=199|8=FIX.4.2|9=70|35=0|34=476|49=EXEC_SERVER|52=20260328-20:21:37.411|56=MINIFIX_CLIENT|10=202|8=FIX.4.2|9=70|35=0|34=477|49=EXEC_SERVER|52=20260328-20:22:07.406|56=MINIFIX_CLIENT|10=205|8=FIX.4.2|9=70|35=0|34=478|49=EXEC_SERVER|52=20260328-20:22:37.399|56=MINIFIX_CLIENT|10=220|8=FIX.4.2|9=70|35=0|34=479|49=EXEC_SERVER|52=20260328-20:23:07.407|56=MINIFIX_CLIENT|10=209|8=FIX.4.2|9=121|35=5|34=480|49=EXEC_SERVER|52=20260328-20:26:13.798|56=MINIFIX_CLIENT|58=MsgSeqNum too low, expecting 356 but received 1|10=011|8=FIX.4.2|9=82|35=A|34=481|49=EXEC_SERVER|52=20260328-20:26:16.505|56=MINIFIX_CLIENT|98=0|108=30|10=249|8=FIX.4.2|9=81|35=2|34=482|49=EXEC_SERVER|52=20260328-20:26:16.505|56=MINIFIX_CLIENT|7=356|16=0|10=185|8=FIX.4.2|9=70|35=0|34=483|49=EXEC_SERVER|52=20260328-20:26:47.398|56=MINIFIX_CLIENT|10=220|8=FIX.4.2|9=70|35=0|34=484|49=EXEC_SERVER|52=20260328-20:27:17.403|56=MINIFIX_CLIENT|10=206|8=FIX.4.2|9=70|35=0|34=485|49=EXEC_SERVER|52=20260328-20:27:47.412|56=MINIFIX_CLIENT|10=210|8=FIX.4.2|9=70|35=0|34=486|49=EXEC_SERVER|52=20260328-20:28:18.398|56=MINIFIX_CLIENT|10=223|8=FIX.4.2|9=70|35=0|34=487|49=EXEC_SERVER|52=20260328-20:28:48.401|56=MINIFIX_CLIENT|10=212|8=FIX.4.2|9=70|35=0|34=488|49=EXEC_SERVER|52=20260328-20:29:18.409|56=MINIFIX_CLIENT|10=219|8=FIX.4.2|9=70|35=0|34=489|49=EXEC_SERVER|52=20260328-20:29:48.408|56=MINIFIX_CLIENT|10=222|8=FIX.4.2|9=70|35=0|34=490|49=EXEC_SERVER|52=20260328-20:30:18.403|56=MINIFIX_CLIENT|10=198|8=FIX.4.2|9=121|35=5|34=491|49=EXEC_SERVER|52=20260328-20:30:35.913|56=MINIFIX_CLIENT|58=MsgSeqNum too low, expecting 356 but received 1|10=001|8=FIX.4.2|9=82|35=A|34=492|49=EXEC_SERVER|52=20260328-20:30:41.021|56=MINIFIX_CLIENT|98=0|108=30|10=237|8=FIX.4.2|9=81|35=2|34=493|49=EXEC_SERVER|52=20260328-20:30:41.021|56=MINIFIX_CLIENT|7=356|16=0|10=173|8=FIX.4.2|9=70|35=0|34=494|49=EXEC_SERVER|52=20260328-20:31:11.406|56=MINIFIX_CLIENT|10=199|8=FIX.4.2|9=70|35=0|34=495|49=EXEC_SERVER|52=20260328-20:31:41.408|56=MINIFIX_CLIENT|10=205|8=FIX.4.2|9=70|35=0|34=496|49=EXEC_SERVER|52=20260328-20:32:11.412|56=MINIFIX_CLIENT|10=199|8=FIX.4.2|9=70|35=0|34=497|49=EXEC_SERVER|52=20260328-20:32:42.403|56=MINIFIX_CLIENT|10=204|8=FIX.4.2|9=70|35=0|34=498|49=EXEC_SERVER|52=20260328-20:33:12.406|56=MINIFIX_CLIENT|10=206|8=FIX.4.2|9=70|35=0|34=499|49=EXEC_SERVER|52=20260328-20:33:42.408|56=MINIFIX_CLIENT|10=212|8=FIX.4.2|9=70|35=0|34=500|49=EXEC_SERVER|52=20260328-20:34:12.411|56=MINIFIX_CLIENT|10=187|8=FIX.4.2|9=70|35=0|34=501|49=EXEC_SERVER|52=20260328-20:34:43.399|56=MINIFIX_CLIENT|10=207|8=FIX.4.2|9=70|35=0|34=502|49=EXEC_SERVER|52=20260328-20:35:13.406|56=MINIFIX_CLIENT|10=195|8=FIX.4.2|9=70|35=0|34=503|49=EXEC_SERVER|52=20260328-20:35:43.409|56=MINIFIX_CLIENT|10=202|